:100000000C942A000C94921B0C94C51B0C94F81BA6
:100010000C9447000C9447000C94C60F0C946C0F82
:100020000C94990F0C943F0F0C94C1130C949413DF
:100030000C9447000C94C1090C94FB090C944700E4
:100040000C9447000C9447000C9447000C94470014
:100050000C94470011241FBECFE5D8E0DEBFCDBF12
:1000600010E0A0E6B0E0E2E6F4E502C005900D92F3
:10007000A037B107D9F710E0A0E7B0E001C01D92AA
:10008000A539B107E1F70E9481290C942F2A0C941D
:100090000000EF92FF920F931F937B018C0120E0F1
:1000A00030E040E05FE40E94F50388238CF0C80153
:1000B000B70120E030E040E05FE40E94C1010E940F
:1000C00085049B01AC01205030404040504806C0A0
:1000D000C801B7010E9485049B01AC01B901CA01A6
:1000E0001F910F91FF90EF900895A0E0B0E0EBE733
:1000F000F0E00C94F829DC012B01FA019C9192307C
:1001000008F439C1EB018881823008F433C194309E
:1001100069F4843009F02FC111969C91119789815F
:10012000981709F428C1A0E6B0E025C1843009F48D
:1001300021C18230A9F4923009F01DC19A01AD01AC
:1001400088E0EA010990AE01E90109929E0181501F
:10015000C1F7E201898111969C918923818308C1AD
:10016000923009F407C112962D903C901397EB0141
:100170008A819B811496AD90BD90CD90DC901797AD
:10018000EC80FD800E811F819101281B390BB90184
:1001900037FF04C066277727621B730B6032710537
:1001A0000CF061C0121613066CF537014801062EDB
:1001B00004C096948794779467940A94D2F721E0C8
:1001C00030E040E050E004C0220F331F441F551FB1
:1001D0006A95D2F721503040404050402E213F21B7
:1001E00040235123211531054105510521F021E01E
:1001F00030E040E050E079018A01E628F72808293C
:1002000019293CC0232BD1F1260E371E350146019A
:10021000062E04C096948794779467940A94D2F734
:1002200021E030E040E050E004C0220F331F441FC3
:10023000551F6A95D2F721503040404050402A2146
:100240003B214C215D21211531054105510521F04E
:1002500021E030E040E050E059016A01A628B728CB
:10026000C828D9280BC0821593052CF01C01AA249C
:10027000BB24650103C0EE24FF24870111969C91E5
:10028000D20111968C91981709F445C0992339F041
:10029000A80197012A193B094C095D0906C0A6016E
:1002A00095012E193F09400B510B57FD08C01182D3
:1002B0003382228224833583468357831DC081E0A5
:1002C00081833382228288279927DC01821B930B4A
:1002D000A40BB50B84839583A683B7830DC0220F2F
:1002E000331F441F551F24833583468357838281E0
:1002F000938101979383828324813581468157813D
:10030000DA01C9010197A109B1098F5F9F4FAF4F72
:10031000BF4328F30BC0918333822282EA0CFB1C7B
:100320000C1D1D1DE482F5820683178383E0808304
:10033000248135814681578157FF1AC0C901AA27F8
:1003400097FDA095BA2F81709070A070B0705695EF
:10035000479537952795822B932BA42BB52B848318
:100360009583A683B7838281938101969383828349
:10037000DF0101C0D201CD01CDB7DEB7E2E10C94BF
:10038000142AA0E2B0E0E7ECF1E00C94042A6983BF
:100390007A838B839C832D833E834F835887E9E048
:1003A000EE2EF12CEC0EFD1ECE010196B7010E943F
:1003B000AE058E010F5E1F4FCE010596B8010E945B
:1003C000AE058A8991E089278A8BC701B801AE0101
:1003D000475E5F4F0E9475000E94D904A096E6E038
:1003E0000C94202AA0E2B0E0E8EFF1E00C94042A9B
:1003F00069837A838B839C832D833E834F835887C5
:10040000F9E0EF2EF12CEC0EFD1ECE010196B701A6
:100410000E94AE058E010F5E1F4FCE010596B801FA
:100420000E94AE05C701B801AE01475E5F4F0E9452
:1004300075000E94D904A096E6E00C94202AA0E260
:10044000B0E0E5E2F2E00C94F82969837A838B83CB
:100450009C832D833E834F835887CE010196BE0136
:10046000675F7F4F0E94AE05CE010596BE016F5EAD
:100470007F4F0E94AE059985923088F0898982303D
:10048000C8F0943019F4823051F404C0843029F457
:10049000923081F480E690E0C6C0923049F420E0CA
:1004A0009A858A89981321E02A87CE010996BBC0D4
:1004B000823049F420E09A858A89981321E02A8BBA
:1004C000CE014196B0C02D843E844F8458886D88FB
:1004D0007E888F88988CEE24FF248701AA24BB2471
:1004E000650140E050E060E070E0E0E0F0E0C10174
:1004F00081709070892BE9F0E60CF71C081D191D1E
:100500009A01AB012A0D3B1D4C1D5D1D80E090E062
:10051000A0E0B0E0E614F7040805190520F481E036
:1005200090E0A0E0B0E0BA01A901480F591F6A1F8E
:100530007B1FAA0CBB1CCC1CDD1C97FE08C081E0F5
:1005400090E0A0E0B0E0A82AB92ACA2ADB2A3196B6
:10055000E032F10549F0660C771C881C991C569412
:10056000479437942794C3CFFA85EA892B893C892D
:100570008B859C85280F391F2E5F3F4F17C0CA01FE
:1005800081709070892B61F016950795F794E79428
:1005900080E090E0A0E0B0E8E82AF92A0A2B1B2BC3
:1005A00076956795579547952F5F3F4F77FDE7CF36
:1005B0000CC0440F551F661F771F17FD4160EE0CDE
:1005C000FF1C001F111F21503040403090E05907A0
:1005D00090E0690790E4790760F32B8F3C8FDB0193
:1005E000CA018F779070A070B07080349105A1051A
:1005F000B10561F447FD0AC0E114F10401051105DC
:1006000029F0405C5F4F6F4F7F4F40781A8EFE1786
:1006100011F081E08A8F4D8F5E8F6F8F78A383E01A
:10062000898FCE0149960E94D904A096E2E10C94EC
:10063000142AA8E1B0E0EFE1F3E00C94002A69830A
:100640007A838B839C832D833E834F835887B9E0C5
:10065000EB2EF12CEC0EFD1ECE010196B7010E948F
:10066000AE058E010F5E1F4FCE010596B8010E94A8
:10067000AE052985223008F47EC03989323010F465
:10068000B8017CC08A859A8989278A87243011F02D
:10069000223031F4231709F06EC060E670E06EC0BE
:1006A000343039F41D861E861F86188A1C861B86E8
:1006B00004C0323021F484E08987B7015FC02B8504
:1006C0003C858B899C89281B390B3C872B87ED84C3
:1006D000FE840F851889AD88BE88CF88D88CEA142F
:1006E000FB040C051D0540F4EE0CFF1C001F111F40
:1006F000215030403C872B8720E030E040E050E044
:1007000080E090E0A0E0B0E460E070E0EA14FB0478
:100710000C051D0540F0282B392B4A2B5B2BEA18C2
:10072000FB080C091D09B695A79597958795EE0CC2
:10073000FF1C001F111F6F5F7F4F6F31710531F775
:10074000DA01C9018F779070A070B0708034910584
:10075000A105B10561F427FD0AC0E114F10401050A
:10076000110529F0205C3F4F4F4F5F4F20782D87B8
:100770003E874F87588BBE01675F7F4FCB010E943A
:10078000D9046896EAE00C941C2AA8E1B0E0EBECEE
:10079000F3E00C94042A69837A838B839C832D83F2
:1007A0003E834F83588789E0E82EF12CEC0EFD1E26
:1007B000CE010196B7010E94AE058E010F5E1F4F5C
:1007C000CE010596B8010E94AE058985823040F0C1
:1007D0008989823028F0C701B8010E94260601C02D
:1007E0008FEF6896E6E00C94202AA8E1B0E0EBEFEA
:1007F000F3E00C94042A69837A838B839C832D8392
:100800003E834F83588789E0E82EF12CEC0EFD1EC5
:10081000CE010196B7010E94AE058E010F5E1F4FFB
:10082000CE010596B8010E94AE058985823040F060
:100830008989823028F0C701B8010E94260601C0CC
:100840008FEF6896E6E00C94202AA8E1B0E0EBE296
:10085000F4E00C94042A69837A838B839C832D8330
:100860003E834F83588789E0E82EF12CEC0EFD1E65
:10087000CE010196B7010E94AE058E010F5E1F4F9B
:10088000CE010596B8010E94AE058985823040F000
:100890008989823028F0C701B8010E94260601C06C
:1008A00081E06896E6E00C94202AA8E1B0E0EBE550
:1008B000F4E00C94042A69837A838B839C832D83D0
:1008C0003E834F83588789E0E82EF12CEC0EFD1E05
:1008D000CE010196B7010E94AE058E010F5E1F4F3B
:1008E000CE010596B8010E94AE058985823040F0A0
:1008F0008989823028F0C701B8010E94260601C00C
:1009000081E06896E6E00C94202AACE0B0E0EBE8E9
:10091000F4E00C94082A69837A838B839C83CE014C
:100920000196BE016B5F7F4F0E94AE058D818230C4
:1009300061F1823050F1843021F48E81882351F1AD
:100940002EC02F81388537FD20C06E812F313105B3
:100950001CF06623F9F023C08EE190E0821B930B1C
:1009600029853A854B855C8504C056954795379512
:1009700027958A95D2F76623B1F05095409530952A
:1009800021953F4F4F4F5F4F0EC020E030E040E0D9
:1009900050E009C02FEF3FEF4FEF5FE704C020E0CA
:1009A00030E040E050E8B901CA012C96E2E00C9436
:1009B000242ADF92EF92FF920F931F93FC01E480B1
:1009C000F58006811781D1808081823048F480E0F3
:1009D00090E0A0E1B0E0E82AF92A0A2B1B2BA5C081
:1009E000843009F49FC0823021F4EE24FF24870173
:1009F00005C0E114F1040105110519F4E0E0F0E08F
:100A000096C0628173819FEF623879070CF05BC0FA
:100A100022E83FEF261B370B2A3131052CF020E06E
:100A200030E040E050E02AC0B801A701022E04C027
:100A300076956795579547950A94D2F781E090E0AF
:100A4000A0E0B0E004C0880F991FAA1FBB1F2A9521
:100A5000D2F70197A109B1098E219F21A023B123CB
:100A60000097A105B10521F081E090E0A0E0B0E0A1
:100A70009A01AB01282B392B4A2B5B2BDA01C901D8
:100A80008F779070A070B07080349105A105B1058A
:100A900039F427FF09C0205C3F4F4F4F5F4F04C020
:100AA000215C3F4F4F4F5F4FE0E0F0E02030A0E08F
:100AB0003A07A0E04A07A0E45A0710F0E1E0F0E0AE
:100AC00079018A0127C06038710564F5FB01E1589E
:100AD000FF4FD801C7018F779070A070B07080343D
:100AE0009105A105B10539F4E7FE0DC080E490E061
:100AF000A0E0B0E004C08FE390E0A0E0B0E0E80E3A
:100B0000F91E0A1F1B1F17FF05C016950795F794BE
:100B1000E794319687E016950795F794E7948A95C0
:100B2000D1F705C0EE24FF248701EFEFF0E06E2F30
:100B3000679566276795902F9F77D794DD24D79484
:100B40008E2F8695492F462B582F5D29B701CA0154
:100B50001F910F91FF90EF90DF900895FC01DB0152
:100B6000408151812281622F6F7770E0221F2227FE
:100B7000221F9381892F880F822B282F30E0991F05
:100B80009927991F11969C93119721153105A9F565
:100B9000411551056105710511F482E037C082E805
:100BA0009FEF13969C938E9312979A01AB0167E087
:100BB000220F331F441F551F6A95D1F783E08C9392
:100BC0000DC0220F331F441F551F12968D919C910B
:100BD0001397019713969C938E931297203080E081
:100BE000380780E0480780E4580758F314962D939F
:100BF0003D934D935C93179708952F3F310579F4FA
:100C0000411551056105710519F484E08C9308952F
:100C100064FF03C081E08C9312C01C9210C02F5758
:100C2000304013963C932E93129783E08C9387E089
:100C3000440F551F661F771F8A95D1F7706414966D
:100C40004D935D936D937C93179708951F93DC01EB
:100C5000FB019C91923008F447C08081823008F4F7
:100C600043C0943051F411961C91843099F58181E0
:100C7000682F70E0611B71093FC0843021F0923011
:100C800031F48230B9F18181882389F12DC0119628
:100C90001C9111978230F1F081811817D9F41296C6
:100CA0002D913C911397828193818217930794F041
:100CB00028173907BCF014968D919D910D90BC9129
:100CC000A02D2481358146815781281739074A078D
:100CD0005B0718F4112341F00AC082179307A40799
:100CE000B50740F4112319F061E070E005C06FEF23
:100CF0007FEF02C060E070E0CB011F910895DF93A9
:100D0000CF93CDB7DEB760E072EC81E090E00E9457
:100D10008C06CF91DF910895DF93CF93CDB7DEB7E7
:100D200027970FB6F894DEBF0FBECDBF6C837D83CF
:100D30008E839F8319828C819D81AE81BF81BC018E
:100D4000CD010E9461099B838A83E0E4F0E08A81FF
:100D50009B81892F99278083E9E2F0E08A81808353
:100D6000898180688983898186608983E0E4F0E0F5
:100D700089818083AAE2B0E0EAE2F0E080818861C4
:100D80008C93AAE2B0E0EAE2F0E0808180688C9384
:100D900080E027960FB6F894DEBF0FBECDBFCF918F
:100DA000DF910895DF93CF930F92CDB7DEB789839C
:100DB000EBE2F0E08081882F90E0807290700097E5
:100DC000B9F3ECE2F0E08981808380E00F90CF916D
:100DD000DF9108950F931F93DF93CF93CDB7DEB7C5
:100DE00069970FB6F894DEBF0FBECDBF6D8B7E8BBB
:100DF0008F8B988F18861F828D899E89AF89B88DB9
:100E00008B839C83AD83BE838D899E89AF89B88D8A
:100E1000BB238CF481E08F838D899E89AF89B88D47
:100E2000B095A095909581959F4FAF4FBF4F8B8305
:100E30009C83AD83BE838B819C81AD81BE810097F5
:100E4000A105B10599F580E30E94D206898F66C09D
:100E50008885082F10E08B819C81AD81BE812AE0BE
:100E600030E040E050E0BC01CD010E94DD29DC0112
:100E7000CB01282F205DCE010996FC01E00FF11F68
:100E800020838B819C81AD81BE812AE030E040E0EF
:100E900050E0BC01CD010E94DD29DA01C9018B833C
:100EA0009C83AD83BE8388858F5F88878B819C817F
:100EB000AD81BE81181619061A061B064CF28F81E9
:100EC000882369F08885282F30E0CE010996FC013F
:100ED000E20FF31F8DE2808388858F5F8887888586
:100EE0008A8318C08A81882F90E09C01215030406D
:100EF000CE010996FC01E20FF31F80810E94D20609
:100F000089838981882319F08981898F07C08A8123
:100F100081508A838A81882329F7198E898D699661
:100F20000FB6F894DEBF0FBECDBFCF91DF911F91FA
:100F30000F910895DF93CF9300D000D0CDB7DEB7E7
:100F40009B838A838A819B810097A1F481E08C83B3
:100F500017C0EA81FB8180810E94D2068983898142
:100F6000882319F089818C830BC08A819B8101962B
:100F70009B838A83EA81FB818081882351F71C82CD
:100F80008C810F900F900F900F90CF91DF9108956B
:100F9000DF93CF93CDB7DEB728970FB6F894DEBFB7
:100FA0000FBECDBF9D838C837F836E838C819D819B
:100FB000009719F481E0888721C01A82198216C02F
:100FC0002C813D8189819A81F901E80FF91F808187
:100FD0000E94D2068B838B81882319F08B818887AE
:100FE0000DC089819A8101969A83898329813A81EA
:100FF0008E819F812817390718F3188688852896CF
:101000000FB6F894DEBF0FBECDBFCF91DF9108952C
:10101000DF93CF9300D000D0CDB7DEB79B838A8318
:101020008A819B81009719F481E08C8315C0EBE2E3
:10103000F0E080818823DCF70E949309898389810D
:10104000882319F089818C8307C0ECE2F0E080816D
:10105000EA81FB8180831C828C810F900F900F901E
:101060000F90CF91DF910895DF93CF93CDB7DEB787
:1010700029970FB6F894DEBF0FBECDBF9E838D8338
:1010800078876F831A8219828D819E81009721F063
:101090008F819885009711F581E0898732C0CE0154
:1010A00004960E9408088B838B81882319F08B811A
:1010B000898727C08C818D30D9F08C818A30C1F02E
:1010C0002D813E8189819A81F901E80FF91F8C8178
:1010D000808389819A8101969A8389838F819885FB
:1010E0009C012150304089819A8182179307B8F280
:1010F0008D819E8129813A81FC01E20FF31F1082CC
:101100001986898529960FB6F894DEBF0FBECDBF2C
:10111000CF91DF910895DF93CF9300D000D0CDB76A
:10112000DEB79B838A838A819B81009719F481E0D3
:101130008C8318C0EBE2F0E0808188231CF082E011
:101140008C8310C00E94930989838981882319F0B8
:1011500089818C8307C0ECE2F0E08081EA81FB8129
:1011600080831C828C810F900F900F900F90CF91F5
:10117000DF910895DF93CF930F92CDB7DEB7EBE207
:10118000F0E080811982882314F481E089838981C9
:101190000F90CF91DF910895DF93CF930F92CDB74A
:1011A000DEB7EBE2F0E08081882F90E080729070F3
:1011B0001982009711F081E0898389810F90CF9186
:1011C000DF910895DF93CF9300D0CDB7DEB79A8338
:1011D000898389819A8190937100809370000F9028
:1011E0000F90CF91DF910895DF93CF9300D0CDB7CB
:1011F000DEB79A83898389819A8190937300809363
:1012000072000F900F90CF91DF910895DF93CF93ED
:1012100000D00F92CDB7DEB78983AAE2B0E0EAE250
:10122000F0E080818F738C938981282F30E03B839D
:101230002A838A819B818230910591F02A813B81AA
:1012400023303105A9F08A819B8181309105B9F461
:10125000AAE2B0E0EAE2F0E0808180688C930FC0FF
:10126000AAE2B0E0EAE2F0E0808180648C9307C0FB
:10127000AAE2B0E0EAE2F0E08081806C8C930F900B
:101280000F900F90CF91DF910895DF93CF930F923E
:10129000CDB7DEB704C0ECE2F0E080818983EBE2F9
:1012A000F0E080818823BCF3EBE2F0E08081882FBE
:1012B00090E0807490700097B9F30F90CF91DF9118
:1012C0000895DF93CF9300D000D0CDB7DEB7698308
:1012D0007A838B839C8389819A81AB81BC81880FBF
:1012E000991FAA1FBB1F880F991FAA1FBB1F880F1A
:1012F000991FAA1FBB1F880F991FAA1FBB1F9C0104
:10130000AD0180E092E1AAE7B0E0BC01CD010E940E
:10131000BB29DA01C90101970F900F900F900F9030
:10132000CF91DF910895DF93CF9300D0CDB7DEB793
:10133000EBE2F0E0808189838981882F90E08071E1
:101340009070009719F084E08A8315C08981882FF6
:1013500090E088709070009719F085E08A830BC048
:101360008981882F90E084709070009719F083E055
:101370008A8301C01A828A810F900F90CF91DF91EA
:1013800008951F920F920FB60F9211242F933F933F
:101390004F935F936F937F938F939F93AF93BF937D
:1013A000EF93FF93DF93CF930F92CDB7DEB7ECE2CD
:1013B000F0E08081898380917000909171000097A6
:1013C00031F0E0917000F0917100898109950F90E2
:1013D000CF91DF91FF91EF91BF91AF919F918F914D
:1013E0007F916F915F914F913F912F910F900FBE21
:1013F0000F901F9018951F920F920FB60F92112405
:101400002F933F934F935F936F937F938F939F930C
:10141000AF93BF93EF93FF93DF93CF93CDB7DEB737
:101420008091720090917300009729F0E091720012
:10143000F09173000995CF91DF91FF91EF91BF91EA
:10144000AF919F918F917F916F915F914F913F915C
:101450002F910F900FBE0F901F901895DF93CF9391
:10146000CDB7DEB7AEE4B0E0EEE4F0E080818061BD
:101470008C93AEE4B0E0EEE4F0E0808188608C9381
:10148000AFE4B0E0EFE4F0E0808182608C93AFE401
:10149000B0E0EFE4F0E080818E7F8C93CF91DF911C
:1014A0000895DF93CF9300D0CDB7DEB79A838983B9
:1014B00089819A810E94E70DAFE5B0E0EFE5F0E0A9
:1014C000808180688C93A9E5B0E0E9E5F0E0808157
:1014D00084608C93AEE4B0E0EEE4F0E080818B7F3A
:1014E0008C93AEE4B0E0EEE4F0E0808182608C9317
:1014F000AEE4B0E0EEE4F0E0808181608C930F9088
:101500000F90CF91DF910895DF93CF93CDB7DEB7E2
:1015100066970FB6F894DEBF0FBECDBF9A8389835E
:101520007C836B834D832E8389819A810E94E70D92
:101530008D81282F30E03E8B2D8B8D899E898330C5
:10154000910509F4ACC02D893E89243031058CF415
:101550008D899E898130910509F445C02D893E8988
:10156000223031050CF06DC08D899E890097A1F065
:101570008CC12D893E892530310509F401C18D8941
:101580009E89853091050CF4B8C02D893E8926309E
:10159000310509F438C179C1AFE5B0E0EFE5F0E01D
:1015A000808180688C938E81282F30E03C8B2B8B40
:1015B0008B899C898130910531F02B893C892230BF
:1015C000310549F062C1A9E5B0E0E9E5F0E08081CC
:1015D00080618C935AC1A9E5B0E0E9E5F0E0808133
:1015E00088608C9352C18E81282F30E03A8B298BF2
:1015F00089899A898130910531F029893A89223087
:10160000310581F042C1AFE4B0E0EFE4F0E0808169
:101610008F778C93AFE4B0E0EFE4F0E080818064FA
:101620008C9333C1AFE4B0E0EFE4F0E080818F7DD4
:101630008C93AFE4B0E0EFE4F0E0808180618C93C4
:1016400024C18E81282F30E0388B2F878F85988991
:101650008130910531F02F8538892230310581F0B4
:1016600014C1AFE4B0E0EFE4F0E0808180688C93D7
:10167000AFE4B0E0EFE4F0E080818F7B8C9305C1B4
:10168000AFE4B0E0EFE4F0E0808180628C93AFE4FF
:10169000B0E0EFE4F0E080818F7E8C93F6C08E8125
:1016A000282F30E03E872D878D859E8581309105DE
:1016B00031F02D853E852230310581F0E6C0AFE462
:1016C000B0E0EFE4F0E0808180688C93AFE4B0E0BC
:1016D000EFE4F0E0808180648C93D7C0AFE4B0E0A9
:1016E000EFE4F0E0808180628C93AFE4B0E0EFE45F
:1016F000F0E0808180618C93C8C0AFE5B0E0EFE599
:10170000F0E0808180688C938E81282F30E03C87C8
:101710002B878B859C858130910531F02B853C850D
:1017200022303105B9F0B1C0AFE4B0E0EFE4F0E051
:1017300080818F778C93AFE4B0E0EFE4F0E08081BC
:1017400080648C93A9E5B0E0E9E5F0E080818061F8
:101750008C939BC0AFE4B0E0EFE4F0E080818F7D3C
:101760008C93AFE4B0E0EFE4F0E0808180618C9393
:10177000A9E5B0E0E9E5F0E0808188608C9385C060
:10178000AFE5B0E0EFE5F0E0808180688C938E817A
:10179000282F30E03A87298789859A8581309105FD
:1017A00031F029853A8522303105B9F06EC0AFE4B9
:1017B000B0E0EFE4F0E0808180688C93AFE4B0E0CB
:1017C000EFE4F0E080818F7B8C93A9E5B0E0E9E560
:1017D000F0E0808180618C9358C0AFE4B0E0EFE42A
:1017E000F0E0808180628C93AFE4B0E0EFE4F0E061
:1017F00080818F7E8C93A9E5B0E0E9E5F0E08081FF
:1018000088608C9342C0AFE5B0E0EFE5F0E0808106
:1018100080688C938E81282F30E038872F838F81CA
:1018200098858130910531F02F813885223031053E
:10183000B9F02BC0AFE4B0E0EFE4F0E08081806865
:101840008C93AFE4B0E0EFE4F0E0808180648C93AF
:10185000A9E5B0E0E9E5F0E0808180618C9315C0F6
:10186000AFE4B0E0EFE4F0E0808180628C93AFE41D
:10187000B0E0EFE4F0E0808180618C93A9E5B0E016
:10188000E9E5F0E0808188608C93AEE4B0E0EEE4BE
:10189000F0E080818B7F8C93AEE4B0E0EEE4F0E08A
:1018A000808182608C93AEE4B0E0EEE4F0E0808171
:1018B00081608C9366960FB6F894DEBF0FBECDBFE5
:1018C000CF91DF910895DF93CF93CDB7DEB72E97F9
:1018D0000FB6F894DEBF0FBECDBF9A8389837C8399
:1018E0006B834D832E8389819A810E94E70D8E81BF
:1018F000282F30E03E872D878D859E85813091058C
:1019000031F02D853E852230310531F009C08B81C3
:101910009C810E94FE0D04C08B819C810E942C0E34
:101920008D81282F30E03C872B878B859C858130EB
:10193000910531F02B853C852230310579F15BC072
:101940008E81282F30E03A87298789859A858130D2
:10195000910531F029853A852230310581F04BC05F
:10196000AFE4B0E0EFE4F0E0808180688C93AFE416
:10197000B0E0EFE4F0E080818F7B8C933CC0AFE47B
:10198000B0E0EFE4F0E0808180628C93AFE4B0E0FF
:10199000EFE4F0E080818F7E8C932DC08E81282F24
:1019A00030E038872F838F8198858130910531F021
:1019B0002F8138852230310581F01DC0AFE4B0E0C1
:1019C000EFE4F0E0808180688C93AFE4B0E0EFE476
:1019D000F0E0808180648C930EC0AFE4B0E0EFE46F
:1019E000F0E0808180628C93AFE4B0E0EFE4F0E05F
:1019F000808180618C93AEE4B0E0EEE4F0E0808121
:101A00008B7F8C93AEE4B0E0EEE4F0E08081826006
:101A10008C93AEE4B0E0EEE4F0E0808181608C93E2
:101A20002E960FB6F894DEBF0FBECDBFCF91DF91DB
:101A30000895DF93CF93CDB7DEB727970FB6F8940D
:101A4000DEBF0FBECDBF9A8389837C836B834D83BA
:101A500089819A810E94E70D8D81282F30E03F8394
:101A60002E838E819F818230910549F12E813F81A5
:101A70002330310534F48E819F818130910561F0EE
:101A800056C02E813F812330310561F18E819F81C7
:101A900084309105D1F14BC0AFE4B0E0EFE4F0E069
:101AA000808180688C93AFE4B0E0EFE4F0E0808167
:101AB0008F7B8C938B819C810E94FE0D38C0AFE49C
:101AC000B0E0EFE4F0E0808180688C93AFE4B0E0B8
:101AD000EFE4F0E0808180648C938B819C810E9494
:101AE000FE0D25C0AFE4B0E0EFE4F0E0808180625D
:101AF0008C93AFE4B0E0EFE4F0E080818F7E8C93D4
:101B00008B819C810E942C0E12C0AFE4B0E0EFE408
:101B1000F0E0808180628C93AFE4B0E0EFE4F0E02D
:101B2000808180618C938B819C810E942C0EAEE41D
:101B3000B0E0EEE4F0E080818B7F8C93AEE4B0E027
:101B4000EEE4F0E0808182608C93AEE4B0E0EEE4FD
:101B5000F0E0808181608C9327960FB6F894DEBF09
:101B60000FBECDBFCF91DF910895DF93CF9300D00B
:101B70000F92CDB7DEB789838981282F30E03B8370
:101B80002A838A819B818130910531F02A813B81B2
:101B90002230310549F00FC0AEE4B0E0EEE4F0E0F1
:101BA00080818F7B8C9307C0AEE4B0E0EEE4F0E080
:101BB000808180648C930E94D60E80E090E00E9429
:101BC000510A0F900F900F90CF91DF910895DF93FE
:101BD000CF9300D0CDB7DEB79A838983EDE4F0E0F0
:101BE00089819A81892F99278083ECE4F0E08981AB
:101BF00080830F900F90CF91DF910895DF93CF9363
:101C000000D0CDB7DEB79A838983EBE4F0E0898119
:101C10009A81892F99278083EAE4F0E08981808383
:101C20000F900F90CF91DF910895DF93CF9300D065
:101C3000CDB7DEB79A838983E7E4F0E089819A81A2
:101C4000892F99278083E6E4F0E0898180830F90D3
:101C50000F90CF91DF910895DF93CF9300D0CDB750
:101C6000DEB79A838983E9E4F0E089819A81892F3C
:101C700099278083E8E4F0E0898180830F900F90BA
:101C8000CF91DF910895DF93CF93CDB7DEB7ECE42A
:101C9000F0E08081282F30E0EDE4F0E08081882FB3
:101CA00090E0982F8827822B932BCF91DF91089576
:101CB000DF93CF93CDB7DEB7EAE4F0E08081282F41
:101CC00030E0EBE4F0E08081882F90E0982F8827C7
:101CD000822B932BCF91DF910895DF93CF93CDB7D4
:101CE000DEB7E8E4F0E08081282F30E0E9E4F0E0BE
:101CF0008081882F90E0982F8827822B932BCF917B
:101D0000DF910895DF93CF93CDB7DEB7E6E4F0E03F
:101D10008081282F30E0E7E4F0E08081882F90E098
:101D2000982F8827822B932BCF91DF910895DF93F3
:101D3000CF93CDB7DEB7AFE5B0E0EFE5F0E080815F
:101D400080688C93A9E5B0E0E9E5F0E080818460EB
:101D50008C93CF91DF910895DF93CF93CDB7DEB70A
:101D6000AFE5B0E0EFE5F0E0808180688C93A9E515
:101D7000B0E0E9E5F0E0808180618C93CF91DF9164
:101D80000895DF93CF93CDB7DEB7AFE5B0E0EFE5D1
:101D9000F0E0808180688C93A9E5B0E0E9E5F0E0AF
:101DA000808188608C93CF91DF910895DF93CF93EA
:101DB000CDB7DEB7AFE5B0E0EFE5F0E08081806859
:101DC0008C93A9E5B0E0E9E5F0E0808180628C9336
:101DD000CF91DF910895DF93CF93CDB7DEB7A9E51B
:101DE000B0E0E9E5F0E080818B7F8C93CF91DF91CB
:101DF0000895DF93CF93CDB7DEB7A9E5B0E0E9E56D
:101E0000F0E080818F7E8C93CF91DF910895DF93F6
:101E1000CF93CDB7DEB7A9E5B0E0E9E5F0E080818A
:101E2000877F8C93CF91DF910895DF93CF93CDB7C8
:101E3000DEB7A9E5B0E0E9E5F0E0808180628C934F
:101E4000CF91DF910895DF93CF93CDB7DEB7AEE4A6
:101E5000B0E0EEE4F0E080818B7F8C93AEE4B0E004
:101E6000EEE4F0E080818D7F8C93AEE4B0E0EEE4B0
:101E7000F0E080818E7F8C93CF91DF9108951F9247
:101E80000F920FB60F9211242F933F934F935F93AE
:101E90006F937F938F939F93AF93BF93EF93FF9332
:101EA000DF93CF93CDB7DEB7E0918900F0918A0040
:101EB0000995CF91DF91FF91EF91BF91AF919F91E4
:101EC0008F917F916F915F914F913F912F910F90E3
:101ED0000FBE0F901F9018951F920F920FB60F9282
:101EE00011242F933F934F935F936F937F938F931F
:101EF0009F93AF93BF93EF93FF93DF93CF93CDB7B0
:101F0000DEB7E0918300F09184000995CF91DF91D5
:101F1000FF91EF91BF91AF919F918F917F916F91C1
:101F20005F914F913F912F910F900FBE0F901F9097
:101F300018951F920F920FB60F9211242F933F9373
:101F40004F935F936F937F938F939F93AF93BF93C1
:101F5000EF93FF93DF93CF93CDB7DEB7E09185008A
:101F6000F09186000995CF91DF91FF91EF91BF919C
:101F7000AF919F918F917F916F915F914F913F9121
:101F80002F910F900FBE0F901F9018951F920F92D8
:101F90000FB60F9211242F933F934F935F936F933C
:101FA0007F938F939F93AF93BF93EF93FF93DF93B1
:101FB000CF93CDB7DEB7E0918700F0918800099507
:101FC000CF91DF91FF91EF91BF91AF919F918F9151
:101FD0007F916F915F914F913F912F910F900FBE25
:101FE0000F901F901895DF93CF93CDB7DEB7A3E581
:101FF000B0E0E3E5F0E08081877F8C93A3E5B0E07B
:10200000E3E5F0E080818F7B8C93CF91DF910895A1
:10201000DF93CF930F92CDB7DEB7898389810E947A
:102020000213AFE5B0E0EFE5F0E0808180688C93CB
:10203000A9E5B0E0E9E5F0E0808181608C93A3E55B
:10204000B0E0E3E5F0E080818B7F8C93A3E5B0E026
:10205000E3E5F0E0808182608C93A3E5B0E0E3E506
:10206000F0E080818E7F8C930F90CF91DF91089567
:10207000DF93CF9300D000D00F92CDB7DEB7898326
:102080006A834B8389810E9402138A810E94101304
:102090008B81282F30E03D832C838C819D81833080
:1020A000910509F463C02C813D812430310584F40D
:1020B0008C819D8181309105D9F12C813D81223027
:1020C00031050CF044C08C819D810097A1F0B3C014
:1020D0002C813D812530310509F474C08C819D81AE
:1020E000853091050CF451C02C813D81263031059D
:1020F00009F485C0A0C0AFE5B0E0EFE5F0E0808175
:1021000080688C93A9E5B0E0E9E5F0E08081826029
:102110008C93A3E5B0E0E3E5F0E080818F7D8C93C4
:10212000A3E5B0E0E3E5F0E080818F7E8C9383C08F
:10213000A3E5B0E0E3E5F0E080818F7D8C93A3E53B
:10214000B0E0E3E5F0E0808180618C9374C0A3E5AA
:10215000B0E0E3E5F0E0808180628C93A3E5B0E03D
:10216000E3E5F0E080818F7E8C9365C0A3E5B0E06D
:10217000E3E5F0E0808180628C93A3E5B0E0E3E5E5
:10218000F0E0808180618C9356C0AFE5B0E0EFE570
:10219000F0E0808180688C93A9E5B0E0E9E5F0E0AB
:1021A000808182608C93A3E5B0E0E3E5F0E080817C
:1021B0008F7D8C93A3E5B0E0E3E5F0E08081806162
:1021C0008C9339C0AFE5B0E0EFE5F0E08081806846
:1021D0008C93A9E5B0E0E9E5F0E0808182608C9322
:1021E000A3E5B0E0E3E5F0E0808180628C93A3E5B5
:1021F000B0E0E3E5F0E080818F7E8C931CC0AFE51A
:10220000B0E0EFE5F0E0808180688C93A9E5B0E074
:10221000E9E5F0E0808182608C93A3E5B0E0E3E53E
:10222000F0E0808180628C93A3E5B0E0E3E5F0E02C
:10223000808180618C93A3E5B0E0E3E5F0E08081EC
:102240008B7F8C93A3E5B0E0E3E5F0E080818260D2
:102250008C93A3E5B0E0E3E5F0E080818E7F8C9382
:102260000F900F900F900F900F90CF91DF910895E6
:10227000DF93CF9300D000D00F92CDB7DEB7898324
:102280006A834B8389810E9402138A810E94101302
:102290008B81282F30E03D832C838C819D8184307D
:1022A000910509F49AC02C813D8125303105ECF46B
:1022B0008C819D818130910509F454C02C813D8130
:1022C000223031052CF48C819D81009739F123C196
:1022D0002C813D812230310509F453C08C819D81D0
:1022E0008330910509F45CC016C12C813D812630F4
:1022F000310509F4ACC08C819D81863091050CF4C8
:1023000089C02C813D812730310509F4BDC08C8105
:102310009D818830910509F4DBC0FDC0AFE5B0E0D8
:10232000EFE5F0E0808180688C93A9E5B0E0E9E515
:10233000F0E0808182608C93A9E5B0E0E9E5F0E00F
:10234000808181608C93A3E5B0E0E3E5F0E08081DB
:102350008F7D8C93A3E5B0E0E3E5F0E080818F7E94
:102360008C93D9C0A3E5B0E0E3E5F0E08081806222
:102370008C93A3E5B0E0E3E5F0E080818F7E8C9361
:10238000CAC0A3E5B0E0E3E5F0E0808180628C9311
:10239000A3E5B0E0E3E5F0E0808180618C93BBC011
:1023A000AFE5B0E0EFE5F0E0808180688C93A9E5CF
:1023B000B0E0E9E5F0E0808181608C93A3E5B0E0D6
:1023C000E3E5F0E0808180628C93A3E5B0E0E3E593
:1023D000F0E080818F7E8C939EC0AFE5B0E0EFE5AA
:1023E000F0E0808180688C93A9E5B0E0E9E5F0E059
:1023F000808181608C93A3E5B0E0E3E5F0E080812B
:1024000080628C93A3E5B0E0E3E5F0E08081806139
:102410008C9381C0AFE5B0E0EFE5F0E080818068AB
:102420008C93A9E5B0E0E9E5F0E0808182608C93CF
:10243000A3E5B0E0E3E5F0E0808180628C93A3E562
:10244000B0E0E3E5F0E080818F7E8C9364C0AFE57F
:10245000B0E0EFE5F0E0808180688C93A9E5B0E022
:10246000E9E5F0E0808182608C93A3E5B0E0E3E5EC
:10247000F0E0808180628C93A3E5B0E0E3E5F0E0DA
:10248000808180618C9347C0AFE5B0E0EFE5F0E07C
:10249000808180688C93A9E5B0E0E9E5F0E0808177
:1024A00081608C93A9E5B0E0E9E5F0E0808182608D
:1024B0008C93A3E5B0E0E3E5F0E0808180628C934B
:1024C000A3E5B0E0E3E5F0E0808180618C9323C078
:1024D000AFE5B0E0EFE5F0E0808180688C93A9E59E
:1024E000B0E0E9E5F0E0808181608C93A9E5B0E09F
:1024F000E9E5F0E0808182608C93A3E5B0E0E3E55C
:10250000F0E0808180628C93A3E5B0E0E3E5F0E049
:1025100080818F7E8C93A3E5B0E0E3E5F0E08081DD
:102520008B7F8C93A3E5B0E0E3E5F0E080818260EF
:102530008C93A3E5B0E0E3E5F0E080818E7F8C939F
:102540000F900F900F900F900F90CF91DF91089503
:10255000DF93CF9300D000D00F92CDB7DEB7898341
:102560006A834B8389810E9402138A810E9410131F
:102570008B81282F30E03D832C838C819D8181309D
:10258000910531F02C813D812230310581F01DC053
:10259000A3E5B0E0E3E5F0E0808180628C93A3E501
:1025A000B0E0E3E5F0E080818F7E8C930EC0A3E580
:1025B000B0E0E3E5F0E0808180628C93A3E5B0E0D9
:1025C000E3E5F0E0808180618C93A3E5B0E0E3E592
:1025D000F0E080818B7F8C93A3E5B0E0E3E5F0E051
:1025E000808182608C93A3E5B0E0E3E5F0E0808138
:1025F0008E7F8C930F900F900F900F900F90CF9134
:10260000DF910895DF93CF930F92CDB7DEB7898323
:10261000E2E5F0E0898180830F90CF91DF9108950A
:10262000DF93CF930F92CDB7DEB78983ECE5F0E06F
:10263000898180830F90CF91DF910895DF93CF93AD
:10264000CDB7DEB7E2E5F0E08081CF91DF9108956C
:10265000DF93CF93CDB7DEB7ECE5F0E08081CF918B
:10266000DF910895DF93CF93CDB7DEB7AFE5B0E04C
:10267000EFE5F0E0808180688C93A9E5B0E0E9E5C2
:10268000F0E0808181608C93CF91DF910895DF939A
:10269000CF93CDB7DEB7AFE5B0E0EFE5F0E08081F6
:1026A00080688C93A9E5B0E0E9E5F0E08081826084
:1026B0008C93CF91DF910895DF93CF93CDB7DEB7A1
:1026C000A9E5B0E0E9E5F0E080818E7F8C93CF91C1
:1026D000DF910895DF93CF93CDB7DEB7A9E5B0E0E2
:1026E000E9E5F0E080818D7F8C93CF91DF910895B3
:1026F000DF93CF93CDB7DEB7A3E5B0E0E3E5F0E03D
:1027000080818B7F8C93A3E5B0E0E3E5F0E08081EE
:102710008D7F8C93A3E5B0E0E3E5F0E080818E7FD0
:102720008C93CF91DF9108951F920F920FB60F9265
:1027300011242F933F934F935F936F937F938F93C6
:102740009F93AF93BF93EF93FF93DF93CF93CDB757
:10275000DEB7E0918D00F0918E000995CF91DF9169
:10276000FF91EF91BF91AF919F918F917F916F9169
:102770005F914F913F912F910F900FBE0F901F903F
:1027800018951F920F920FB60F9211242F933F931B
:102790004F935F936F937F938F939F93AF93BF9369
:1027A000EF93FF93DF93CF93CDB7DEB7E0918B002C
:1027B000F0918C000995CF91DF91FF91EF91BF913E
:1027C000AF919F918F917F916F915F914F913F91C9
:1027D0002F910F900FBE0F901F901895DF93CF93FE
:1027E000CDB7DEB70E94F30F8AE595E190938E0096
:1027F00080938D0087E295E1909392008093910001
:10280000109274001092750010927600109277006A
:10281000109278001092790010927A0010927B004A
:1028200010927C0010927D0010927E0010927F002A
:10283000109280001092810080E0CF91DF91089586
:10284000DF93CF930F92CDB7DEB7809174008130C4
:1028500019F483E089832AC00E94781310927500CE
:102860001092760010927700109278001092790002
:1028700010927A0010927B0010927C0010927D00E2
:1028800010927E0010927F001092800010928100C2
:1028900080E00E94021380E00E94081080E061E066
:1028A0000E940E1A81E080937400198289810F9032
:1028B000CF91DF910895DF93CF93CDB7DEB70E941C
:1028C000781380E00E944D1B1092750010927600E4
:1028D00010927700109278001092790010927A008E
:1028E00010927B0010927C0010927D0010927E006E
:1028F00010927F001092800010928100109274005C
:10290000CF91DF910895DF93CF93CDB7DEB70E94CB
:10291000781380E00E944D1B1092740080E0CF91EC
:10292000DF910895EF92FF920F931F93DF93CF9360
:1029300000D00F92CDB7DEB79A83898389819A81BF
:10294000009719F401E00B8326C080917400823057
:1029500019F011E01B831FC02091790030917A009B
:1029600040917B0050917C008091750090917600A1
:10297000A0917700B091780079018A01E81AF90AEC
:102980000A0B1B0BD801C701E981FA81808391836F
:10299000A283B3831B828B810F900F900F90CF91F6
:1029A000DF911F910F91FF90EF900895DF93CF93E8
:1029B000CDB7DEB728970FB6F894DEBF0FBECDBFF8
:1029C0009F838E838E819F81009719F481E0888791
:1029D0001AC0CE0102960E949214898389818823AD
:1029E00019F0898188870FC08A819B81AC81BD8164
:1029F000B695A79597958795EE81FF818083918302
:102A0000A283B3831886888528960FB6F894DEBF14
:102A10000FBECDBFCF91DF910895DF93CF930F927B
:102A2000CDB7DEB7809174001982823011F481E055
:102A3000898389810F90CF91DF910895DF93CF93A0
:102A4000CDB7DEB780917400CF91DF910895DF9309
:102A5000CF93CDB7DEB780917400813041F580917E
:102A60008100882381F40E948315DC01CB018093CF
:102A7000750090937600A0937700B093780081E082
:102A80008093810014C00E948315DC01CB018093E8
:102A9000790090937A00A0937B00B0937C0082E051
:102AA000809374000E94781380E00E944D1BCF91A8
:102AB000DF910895DF93CF93CDB7DEB780917D008E
:102AC00090917E00A0917F00B09180000196A11DA1
:102AD000B11D80937D0090937E00A0937F00B09302
:102AE000800080917D0090917E00A0917F00B09148
:102AF000800085369105A105B10510F00E945B1498
:102B0000CF91DF910895EF92FF920F931F93DF9380
:102B1000CF93CDB7DEB780917D0090917E00A091DC
:102B20007F00B0918000EE24F82E092F1A2F0E940A
:102B30001E13882F90E0A0E0B0E08E0D9F1DA01F17
:102B4000B11FBC01CD01CF91DF911F910F91FF907B
:102B5000EF900895DF93CF93CDB7DEB727970FB6E9
:102B6000F894DEBF0FBECDBF89836A834B83898112
:102B7000843008F0EEC08A81883008F0EAC08B818A
:102B80008F3F09F06FC08981282F30E03F832E836B
:102B90008E819F818130910549F12E813F812230C4
:102BA00031052CF48E819F81009761F0D2C02E8177
:102BB0003F812230310571F18E819F8183309105F3
:102BC000E9F1C7C0AAE3B0E0EAE3F0E08081482F72
:102BD0008A81282F30E081E090E0022E02C0880F29
:102BE000991F0A94E2F7842B8C93B3C0A7E3B0E05B
:102BF000E7E3F0E08081482F8A81282F30E081E0F0
:102C000090E0022E02C0880F991F0A94E2F7842BED
:102C10008C939FC0A4E3B0E0E4E3F0E08081482F10
:102C20008A81282F30E081E090E0022E02C0880FD8
:102C3000991F0A94E2F7842B8C938BC0A1E3B0E038
:102C4000E1E3F0E08081482F8A81282F30E081E0A5
:102C500090E0022E02C0880F991F0A94E2F7842B9D
:102C60008C9377C08B81882309F073C08981282FCA
:102C700030E03D832C838C819D818130910559F119
:102C80002C813D81223031052CF48C819D8100976F
:102C900069F05FC02C813D812230310589F18C8142
:102CA0009D818330910509F440C053C0AAE3B0E090
:102CB000EAE3F0E08081482F8A81282F30E081E02C
:102CC00090E0022E02C0880F991F0A94E2F78095C7
:102CD00084238C933EC0A7E3B0E0E7E3F0E080817B
:102CE000482F8A81282F30E081E090E0022E02C038
:102CF000880F991F0A94E2F7809584238C9329C04A
:102D0000A4E3B0E0E4E3F0E08081482F8A81282F3B
:102D100030E081E090E0022E02C0880F991F0A94F3
:102D2000E2F7809584238C9314C0A1E3B0E0E1E343
:102D3000F0E08081482F8A81282F30E081E090E008
:102D4000022E02C0880F991F0A94E2F7809584230F
:102D50008C9327960FB6F894DEBF0FBECDBFCF91F0
:102D6000DF910895DF93CF93CDB7DEB727970FB6E6
:102D7000F894DEBF0FBECDBF89836A834B83898100
:102D8000843008F0EEC08A81883008F0EAC08B8178
:102D90008F3F09F06FC08981282F30E03F832E8359
:102DA0008E819F818130910549F12E813F812230B2
:102DB00031052CF48E819F81009761F0D2C02E8165
:102DC0003F812230310571F18E819F8183309105E1
:102DD000E9F1C7C0ABE3B0E0EBE3F0E08081482F5E
:102DE0008A81282F30E081E090E0022E02C0880F17
:102DF000991F0A94E2F7842B8C93B3C0A8E3B0E048
:102E0000E8E3F0E08081482F8A81282F30E081E0DC
:102E100090E0022E02C0880F991F0A94E2F7842BDB
:102E20008C939FC0A5E3B0E0E5E3F0E08081482FFC
:102E30008A81282F30E081E090E0022E02C0880FC6
:102E4000991F0A94E2F7842B8C938BC0A2E3B0E025
:102E5000E2E3F0E08081482F8A81282F30E081E092
:102E600090E0022E02C0880F991F0A94E2F7842B8B
:102E70008C9377C08B81882309F073C08981282FB8
:102E800030E03D832C838C819D818130910559F107
:102E90002C813D81223031052CF48C819D8100975D
:102EA00069F05FC02C813D812230310589F18C8130
:102EB0009D818330910509F440C053C0ABE3B0E07D
:102EC000EBE3F0E08081482F8A81282F30E081E019
:102ED00090E0022E02C0880F991F0A94E2F78095B5
:102EE00084238C933EC0A8E3B0E0E8E3F0E0808167
:102EF000482F8A81282F30E081E090E0022E02C026
:102F0000880F991F0A94E2F7809584238C9329C037
:102F1000A5E3B0E0E5E3F0E08081482F8A81282F27
:102F200030E081E090E0022E02C0880F991F0A94E1
:102F3000E2F7809584238C9314C0A2E3B0E0E2E32F
:102F4000F0E08081482F8A81282F30E081E090E0F6
:102F5000022E02C0880F991F0A94E2F780958423FD
:102F60008C9327960FB6F894DEBF0FBECDBFCF91DE
:102F7000DF910895DF93CF9300D000D0CDB7DEB7B7
:102F800089836A838981843008F072C08A8188309D
:102F900008F06EC08981282F30E03C832B838B8121
:102FA0009C818130910549F12B813C812230310592
:102FB0002CF48B819C81009761F05AC02B813C815D
:102FC0002230310571F18B819C8183309105E9F1CB
:102FD0004FC0ABE3B0E0EBE3F0E08081482F8A81A3
:102FE000282F30E081E090E0022E02C0880F991F68
:102FF0000A94E2F784278C933BC0A8E3B0E0E8E3AF
:10300000F0E08081482F8A81282F30E081E090E035
:10301000022E02C0880F991F0A94E2F784278C932E
:1030200027C0A5E3B0E0E5E3F0E08081482F8A8186
:10303000282F30E081E090E0022E02C0880F991F17
:103040000A94E2F784278C9313C0A2E3B0E0E2E392
:10305000F0E08081482F8A81282F30E081E090E0E5
:10306000022E02C0880F991F0A94E2F784278C93DE
:103070000F900F900F900F90CF91DF910895DF93F5
:10308000CF9300D000D0CDB7DEB789836A83898122
:10309000843008F072C08A81883008F06EC089815F
:1030A000282F30E03C832B838B819C8181309105DC
:1030B00049F12B813C81223031052CF48B819C819C
:1030C000009761F05AC02B813C812230310571F1AB
:1030D0008B819C8183309105E9F14FC0ABE3B0E077
:1030E000EBE3F0E08081482F8A81282F30E081E0F7
:1030F00090E0022E02C0880F991F0A94E2F7842BF9
:103100008C933BC0A8E3B0E0E8E3F0E08081482F77
:103110008A81282F30E081E090E0022E02C0880FE3
:10312000991F0A94E2F7842B8C9327C0A5E3B0E0A3
:10313000E5E3F0E08081482F8A81282F30E081E0AC
:1031400090E0022E02C0880F991F0A94E2F7842BA8
:103150008C9313C0A2E3B0E0E2E3F0E08081482F5B
:103160008A81282F30E081E090E0022E02C0880F93
:10317000991F0A94E2F7842B8C930F900F900F9075
:103180000F90CF91DF910895DF93CF9300D000D0BF
:103190000F92CDB7DEB78A836B838A81843008F0C3
:1031A0006CC08B81883008F068C08A81282F30E09D
:1031B0003D832C834C815D814130510541F18C81EF
:1031C0009D818230910534F42C813D81211531059A
:1031D00061F055C04C815D814230510551F18C81C7
:1031E0009D8183309105B9F14AC0E9E3F0E0808127
:1031F000282F30E08B81882F90E0A90102C05595DF
:1032000047958A95E2F7CA018170898338C0E6E361
:10321000F0E08081282F30E08B81882F90E0A90199
:1032200002C0559547958A95E2F7CA018170898356
:1032300026C0E3E3F0E08081282F30E08B81882FE7
:1032400090E0A90102C0559547958A95E2F7CA0119
:103250008170898314C0E0E3F0E08081282F30E0A2
:103260008B81882F90E0A90102C0559547958A95DA
:10327000E2F7CA018170898302C08FEF8983898157
:103280000F900F900F900F900F90CF91DF910895B6
:10329000DF93CF9300D000D0CDB7DEB78A838A8189
:1032A000282F30E03C832B838B819C8181309105DA
:1032B000D1F02B813C81223031052CF48B819C8113
:1032C000009761F01FC02B813C812230310581F0D5
:1032D0008B819C818330910581F014C0E9E3F0E09B
:1032E0008081898311C0E6E3F0E0808189830CC08E
:1032F000E3E3F0E08081898307C0E0E3F0E08081D0
:10330000898302C08FEF898389810F900F900F907E
:103310000F90CF91DF910895DF93CF9300D000D02D
:10332000CDB7DEB789836A838981282F30E03C835B
:103330002B838B819C8181309105D1F02B813C8145
:10334000223031052CF48B819C81009761F01EC0E6
:103350002B813C812230310581F08B819C8183302F
:10336000910581F013C0EAE3F0E08A8180830EC00A
:10337000E7E3F0E08A81808309C0E4E3F0E08A813A
:10338000808304C0E1E3F0E08A8180830F900F9096
:103390000F900F90CF91DF910895DF93CF9300D0DE
:1033A00000D0CDB7DEB789836A838981282F30E0CA
:1033B0003C832B838B819C8181309105D1F02B81C3
:1033C0003C81223031052CF48B819C81009761F087
:1033D0001EC02B813C812230310581F08B819C8184
:1033E0008330910581F013C0EBE3F0E08A818083A4
:1033F0000EC0E8E3F0E08A81808309C0E5E3F0E0F5
:103400008A81808304C0E2E3F0E08A8180830F90A8
:103410000F900F900F90CF91DF910895DF93CF938E
:10342000CDB7DEB72A970FB6F894DEBF0FBECDBF7B
:1034300089836A838981833008F026C18A81843038
:1034400008F022C1AFE5B0E0EFE5F0E080818068F0
:103450008C938981282F30E03A87298789859A853E
:103460008130910509F476C029853A8522303105ED
:1034700009F4DBC089859A85009709F005C183E0CE
:1034800062E040E00E94AA1583E062E00E943F18DB
:103490008A81282F30E038872F838F81988581306B
:1034A000910521F12F813885223031052CF48F814F
:1034B0009885009761F046C02F813885223031050C
:1034C00021F18F8198858330910571F13BC0A5E58D
:1034D000B0E0E5E5F0E080818D7F8C93A5E5B0E07C
:1034E000E5E5F0E080818E7F8C932CC0A5E5B0E00F
:1034F000E5E5F0E080818D7F8C93A5E5B0E0E5E522
:10350000F0E0808181608C931DC0A5E5B0E0E5E529
:10351000F0E0808182608C93A5E5B0E0E5E5F0E025
:1035200080818E7F8C930EC0A5E5B0E0E5E5F0E0EC
:10353000808182608C93A5E5B0E0E5E5F0E08081D4
:1035400081608C93ABE5B0E0EBE5F0E080818064D6
:103550008C939AC083E063E040E00E94AA1583E068
:1035600063E00E943F188A81282F30E03E832D833C
:103570008D819E818130910521F12D813E81223006
:1035800031052CF48D819E81009761F046C02D811C
:103590003E812230310521F18D819E81833091055C
:1035A00071F13BC0A5E5B0E0E5E5F0E08081877F03
:1035B0008C93A5E5B0E0E5E5F0E080818B7F8C930E
:1035C0002CC0A5E5B0E0E5E5F0E08081877F8C9335
:1035D000A5E5B0E0E5E5F0E0808184608C931DC056
:1035E000A5E5B0E0E5E5F0E0808188608C93A5E595
:1035F000B0E0E5E5F0E080818B7F8C930EC0A5E51F
:10360000B0E0E5E5F0E0808188608C93A5E5B0E06E
:10361000E5E5F0E0808184608C93ABE5B0E0EBE51C
:10362000F0E0808180688C932FC08A81282F30E061
:103630003C832B838B819C818230910531F02B81DF
:103640003C8123303105C9F01FC0A4E5B0E0E4E5BA
:10365000F0E080818F7B8C9381E062E040E00E940B
:10366000AA1581E062E00E943F18ABE5B0E0EBE50F
:10367000F0E0808180628C9307C0A4E5B0E0E4E5CF
:10368000F0E0808180648C932A960FB6F894DEBFB8
:103690000FBECDBFCF91DF910895DF93CF9300D0C0
:1036A0000F92CDB7DEB789838981282F30E03B8325
:1036B0002A838A819B81009731F02A813B812130C6
:1036C0003105B1F029C0ABE5B0E0EBE5F0E0808179
:1036D000482F8981282F30E081E090E0022E02C03F
:1036E000880F991F0A94E2F7809584238C9314C065
:1036F000ABE5B0E0EBE5F0E08081482F8981282F31
:1037000030E081E090E0022E02C0880F991F0A94F9
:10371000E2F7809584238C930F900F900F90CF91B8
:10372000DF9108951F920F920FB60F9211242F93DD
:103730003F934F935F936F937F938F939F93AF9339
:10374000BF93EF93FF93DF93CF93CDB7DEB7809115
:10375000910090919200009729F0E0919100F091F2
:1037600092000995CF91DF91FF91EF91BF91AF91B9
:103770009F918F917F916F915F914F913F912F9189
:103780000F900FBE0F901F9018951F920F920FB6BB
:103790000F9211242F933F934F935F936F937F93D7
:1037A0008F939F93AF93BF93EF93FF93DF93CF9349
:1037B000CDB7DEB78091930090919400009729F0E7
:1037C000E0919300F09194000995CF91DF91FF91E2
:1037D000EF91BF91AF919F918F917F916F915F9189
:1037E0004F913F912F910F900FBE0F901F90189502
:1037F0001F920F920FB60F9211242F933F934F9366
:103800005F936F937F938F939F93AF93BF93EF9348
:10381000FF93DF93CF93CDB7DEB780918F00909168
:103820009000009729F0E0918F00F09190000995A9
:10383000CF91DF91FF91EF91BF91AF919F918F91C8
:103840007F916F915F914F913F912F910F900FBE9C
:103850000F901F901895DF93CF93CDB7DEB72F97BA
:103860000FB6F894DEBF0FBECDBF0E94EE138823C3
:1038700019F081E08F8786C081E060E04FEF0E9401
:10388000AA1581E060E040E00E94B21680E090E07E
:10389000A8ECB2E48B879C87AD87BE876B857C855F
:1038A0008D859E8520E030E04AEF54E40E941F029F
:1038B000DC01CB018F839887A987BA876F817885D0
:1038C00089859A8520E030E040E85FE30E94250486
:1038D00088232CF481E090E09E838D833FC06F812C
:1038E000788589859A8520E03FEF4FE757E40E946D
:1038F000C50318164CF56B857C858D859E8520E06B
:1039000030E040E251E40E941F02DC01CB01BC0127
:10391000CD010E944900DC01CB019E838D830FC045
:1039200088EC90E09C838B838B819C810197F1F7DD
:103930009C838B838D819E8101979E838D838D8156
:103940009E81009769F714C06F81788589859A8573
:103950000E944900DC01CB019E838D838D819E8175
:103960009A83898389819A810197F1F79A83898360
:1039700083E062E040E00E94AA1583E062E00E94DA
:103980003F181F868F852F960FB6F894DEBF0FBEA7
:10399000CDBFCF91DF910895DF93CF93CDB7DEB741
:1039A00064970FB6F894DEBF0FBECDBF9B8B8A8B9A
:1039B00083E090E0988B8F878A899B89009719F420
:1039C00081E08C8B98C00E94851D898B8989882312
:1039D00009F47AC089898C8B8EC080E090E0A0E2E7
:1039E000B1E48B879C87AD87BE876B857C858D8591
:1039F0009E8520E030E04AEF54E40E941F02DC0183
:103A0000CB018F839887A987BA876F81788589854D
:103A10009A8520E030E040E85FE30E942504882397
:103A20002CF481E090E09E838D833FC06F81788588
:103A300089859A8520E03FEF4FE757E40E94C50350
:103A400018164CF56B857C858D859E8520E030E0D1
:103A500040E251E40E941F02DC01CB01BC01CD0118
:103A60000E944900DC01CB019E838D830FC088EC4E
:103A700090E09C838B838B819C810197F1F79C83E1
:103A80008B838D819E8101979E838D838D819E8105
:103A9000009769F714C06F81788589859A850E949F
:103AA0004900DC01CB019E838D838D819E819A83A9
:103AB000898389819A810197F1F79A8389838F8518
:103AC00098890197988B8F870E947C1F882329F4FF
:103AD0008F859889009709F080CF8F859889009706
:103AE00029F40E94A71F82E08C8B05C08A899B89DC
:103AF0000E94411F8C8B8C8964960FB6F894DEBFB0
:103B00000FBECDBFCF91DF910895DF93CF93CDB797
:103B1000DEB7E5970FB6F894DEBF0FBECDBF88EED7
:103B200093E09AAB89AB0E945B14C3C080E090E045
:103B3000A0E2B1E48DA79EA7AFA7B8AB6DA57EA507
:103B40008FA598A92BEA3AEA4AE250E40E941F02A4
:103B5000DC01CB0189A79AA7ABA7BCA769A57AA569
:103B60008BA59CA520E030E040E85FE30E9425049F
:103B700088231CF481E088A791C069A57AA58BA54C
:103B80009CA520E030E04FE753E40E94C5031816DF
:103B90000CF07BC06DA57EA58FA598A920E030E034
:103BA0004AE754E40E941903DC01CB018CA39DA3D6
:103BB000AEA3BFA36CA17DA18EA19FA120E030E0A8
:103BC0004AEF54E40E941F02DC01CB0188A399A3B1
:103BD000AAA3BBA368A179A18AA19BA120E030E0A0
:103BE00040E85FE30E94250488232CF481E090E004
:103BF0009F8F8E8F3FC068A179A18AA19BA120E0F1
:103C00003FEF4FE757E40E94C50318164CF56CA12F
:103C10007DA18EA19FA120E030E040E251E40E940E
:103C20001F02DC01CB01BC01CD010E944900DC0177
:103C3000CB019F8F8E8F0FC088EC90E09D8F8C8F73
:103C40008C8D9D8D0197F1F79D8F8C8F8E8D9F8D23
:103C500001979F8F8E8F8E8D9F8D009769F724C05F
:103C600068A179A18AA19BA10E944900DC01CB0136
:103C70009F8F8E8F8E8D9F8D9B8F8A8F8A8D9B8D30
:103C80000197F1F79B8F8A8F0FC069A57AA58BA545
:103C90009CA50E944900DC01CB0188A788A5898FDB
:103CA000898D8A95F1F7898F89A99AA901979AAB8D
:103CB00089AB83E062E00E94C418882329F089A9B7
:103CC0009AA9009709F032CF89A99AA9009719F407
:103CD00081E08CABCCC00E94B01F80E090E0A8ECEB
:103CE000B2E48D8B9E8BAF8BB88F6D897E898F8967
:103CF000988D2BEA3AEA4AE250E40E941F02DC0166
:103D0000CB01898B9A8BAB8BBC8B69897A898B8928
:103D10009C8920E030E040E85FE30E94250488238E
:103D20001CF481E0888B91C069897A898B899C8990
:103D300020E030E04FE753E40E94C50318160CF072
:103D40007BC06D897E898F89988D20E030E04AE7BD
:103D500054E40E941903DC01CB018C879D87AE8758
:103D6000BF876C857D858E859F8520E030E04AEF9A
:103D700054E40E941F02DC01CB0188879987AA873F
:103D8000BB87688579858A859B8520E030E040E89F
:103D90005FE30E94250488232CF481E090E09F8358
:103DA0008E833FC0688579858A859B8520E03FEFBB
:103DB0004FE757E40E94C50318164CF56C857D85C6
:103DC0008E859F8520E030E040E251E40E941F0292
:103DD000DC01CB01BC01CD010E944900DC01CB011B
:103DE0009F838E830FC088EC90E09D838C838C81B1
:103DF0009D810197F1F79D838C838E819F8101972F
:103E00009F838E838E819F81009769F724C0688588
:103E100079858A859B850E944900DC01CB019F83BF
:103E20008E838E819F819B838A838A819B81019768
:103E3000F1F79B838A830FC069897A898B899C8972
:103E40000E944900DC01CB01888B888989838981A4
:103E50008A95F1F789830E9420148BAB8BA98DABD7
:103E60008DA9882311F081E08DAB8DA98CAB8CA935
:103E7000E5960FB6F894DEBF0FBECDBFCF91DF91B0
:103E80000895DF93CF93CDB7DEB728970FB6F89498
:103E9000DEBF0FBECDBF9F838E838E819F81009733
:103EA00019F481E088871EC00E940D15882319F43B
:103EB00081E0888717C0CE0102960E94D6148983BC
:103EC0008981882319F081E088870CC08A819B81D1
:103ED000AC81BD812E813F81BC01CD01A9010E9431
:103EE0008B208887888528960FB6F894DEBF0FBE92
:103EF000CDBFCF91DF910895DF93CF93CDB7DEB7DC
:103F00000E940D15CF91DF910895DF93CF9300D0DC
:103F10000F92CDB7DEB79A83898389819A81009702
:103F200019F481E08B830CC00E940D15882319F4CD
:103F300081E08B8305C089819A810E94D6148B838E
:103F40008B810F900F900F90CF91DF910895DF93A9
:103F5000CF93CDB7DEB70E945B14CF91DF91089568
:103F6000DF93CF93CDB7DEB768970FB6F894DEBF77
:103F70000FBECDBF81E060E04FEF0E94B21680E03F
:103F800090E0A0E2B1E48D8B9E8BAF8BB88F6D89F2
:103F90007E898F89988D2BEA3AEA4AE250E40E94A2
:103FA0001F02DC01CB01898B9A8BAB8BBC8B69899F
:103FB0007A898B899C8920E030E040E85FE30E94A9
:103FC000250488231CF481E0888B91C069897A8953
:103FD0008B899C8920E030E04FE753E40E94C503C1
:103FE00018160CF07BC06D897E898F89988D20E032
:103FF00030E04AE754E40E941903DC01CB018C87CE
:104000009D87AE87BF876C857D858E859F8520E0E7
:1040100030E04AEF54E40E941F02DC01CB018887A4
:104020009987AA87BB87688579858A859B8520E0E3
:1040300030E040E85FE30E94250488232CF481E00F
:1040400090E09F838E833FC0688579858A859B85B4
:1040500020E03FEF4FE757E40E94C50318164CF5E8
:104060006C857D858E859F8520E030E040E251E4BF
:104070000E941F02DC01CB01BC01CD010E9449005E
:10408000DC01CB019F838E830FC088EC90E09D8381
:104090008C838C819D810197F1F79D838C838E8128
:1040A0009F8101979F838E838E819F81009769F7FF
:1040B00024C0688579858A859B850E944900DC013A
:1040C000CB019F838E838E819F819B838A838A818C
:1040D0009B810197F1F79B838A830FC069897A8955
:1040E0008B899C890E944900DC01CB01888B8889DF
:1040F000898389818A95F1F7898381E060E040E0D6
:104100000E94B21668960FB6F894DEBF0FBECDBF00
:10411000CF91DF910895DF93CF93CDB7DEB7299785
:104120000FB6F894DEBF0FBECDBF6B837C838D834B
:104130009E8358874F838B819C81AD81BE81880F80
:10414000991FAA1FBB1F2AE330E040E050E0BC01EA
:10415000CD010E94BB29DA01C9019A838983898133
:104160009A818230910518F423E0298710C0898153
:104170009A8121E08139920718F083E0898707C08E
:10418000EF81F88589819A81918380831986898559
:1041900029960FB6F894DEBF0FBECDBFCF91DF9149
:1041A0000895DF93CF9300D000D000D0CDB7DEB715
:1041B0006B837C838D839E836B817C818D819E81CB
:1041C00020E030E040E050E00E94F50388230CF44A
:1041D00084C06B817C818D819E8120E030E044E34E
:1041E00053E40E94550418160CF477C06B817C814F
:1041F0008D819E8120E030E044EB52E40E94550422
:1042000018160CF16B817C818D819E8120E030E05D
:1042100044EB52E40E941903DC01CB01BC01CD0147
:1042200020E030E04CED52E40E941F02DC01CB01A3
:10423000BC01CD010E944900DC01CB018F5B9F4F87
:104240009A8389832AC06B817C818D819E8120E045
:1042500030E044EB52E40E94C101DC01CB01BC011F
:10426000CD0120E030E044EB52E40E941903DC0170
:10427000CB01BC01CD0120E030E04AEF52E40E94C6
:104280001F02DC01CB01BC01CD010E944900DC0111
:10429000CB0181559F4F9A83898380918200882327
:1042A000C1F40E942E0A83EC99E00E94150E83E06F
:1042B00065E04FEF0E94AA1529813A8180E090E0E5
:1042C000B90141E021E00E94630C81E0809382000B
:1042D00004C089819A810E94FE0D26960FB6F8943B
:1042E000DEBF0FBECDBFCF91DF910895DF93CF9397
:1042F000CDB7DEB70E94230FCF91DF910895DF93F2
:10430000CF930F92CDB7DEB7198230C08981882F45
:1043100090E0880F991FFC01E659FF4F20818981A9
:10432000882F90E0880F991FFC01E559FF4F90817D
:10433000822F692F40E00E94AA158981882F90E082
:10434000880F991FFC01E659FF4F20818981882F32
:1043500090E0880F991FFC01E559FF4F9081822F53
:10436000692F0E943F1889818F5F898389818330FB
:1043700068F280E00F90CF91DF910895DF93CF93A3
:1043800000D000D00F92CDB7DEB78A837C836B83D9
:104390008B819C81009719F482E08D8311C08A8102
:1043A000833018F082E08D830BC08A810E94E9215E
:1043B000898389810E940922EB81FC8180831D828F
:1043C0008D810F900F900F900F900F90CF91DF91F4
:1043D0000895DF93CF930F92CDB7DEB7898389819C
:1043E000882F90E0880F991FFC01E659FF4F20812C
:1043F0008981882F90E0880F991FFC01E559FF4FB4
:104400009081822F692F0E94C4180F90CF91DF9165
:104410000895DF93CF9300D0CDB7DEB789831A829A
:104420008981813011F481E08A838A810F900F9015
:10443000CF91DF910895DF93CF93CDB7DEB780E0C2
:1044400060E04FEF0E94AA1580E061E04FEF0E940C
:10445000AA1580E060E040E00E94B21680E061E0D2
:1044600040E00E94B216CF91DF910895DF93CF9381
:10447000CDB7DEB780E062E04FEF0E94AA1580E082
:1044800063E04FEF0E94AA1580E062E040E00E94E6
:10449000B21680E063E040E00E94B216CF91DF9157
:1044A0000895DF93CF93CDB7DEB70E94892280E0D5
:1044B00060E04FEF0E94B216CF91DF910895DF9335
:1044C000CF93CDB7DEB70E949A2280E062E04FEF33
:1044D0000E94B216CF91DF910895DF93CF93CDB7AD
:1044E000DEB70E94892280E061E04FEF0E94B216A1
:1044F000CF91DF910895DF93CF93CDB7DEB70E94C0
:104500009A2280E063E04FEF0E94B216CF91DF91D4
:104510000895DF93CF93CDB7DEB780E060E040E051
:104520000E94B21680E061E040E00E94B216CF9196
:10453000DF910895DF93CF93CDB7DEB780E062E0DF
:1045400040E00E94B21680E063E040E00E94B216B4
:10455000CF91DF910895DF93CF93CDB7DEB70E945F
:104560006D220E947B22CF91DF910895DF93CF933C
:10457000CDB7DEB70E941B220E943622CF91DF9179
:104580000895DF93CF93CDB7DEB70E9451220E94EA
:104590005F22CF91DF910895DF93CF93CDB7DEB740
:1045A0000E946D220E949A22CF91DF910895DF939D
:1045B000CF93CDB7DEB70E947B220E948922CF9194
:1045C000DF910895DF93CF93CDB7DEB70E948922A4
:1045D0000E949A22CF91DF910895DF93CF93CDB7B8
:1045E000DEB760E070E084EB92E40E94D1200E948C
:1045F0002B1CCF91DF910895DF93CF93CDB7DEB71A
:1046000060E070E080E090E00E94D120CF91DF91E7
:104610000895DF93CF93CDB7DEB760E070E084E319
:1046200093E40E94D120CF91DF910895DF93CF933F
:10463000CDB7DEB760E070E084EB92E40E94D12059
:10464000CF91DF910895DF93CF93CDB7DEB7289751
:104650000FB6F894DEBF0FBECDBF9D838C838C81D7
:104660009D81009711F4188642C0CE0102960E94E7
:10467000CC1C89838981282F30E03F832E838E8153
:104680009F818130910571F12E813F81223031056A
:104690002CF48E819F81009761F026C02E813F818E
:1046A0002230310579F08E819F818330910599F018
:1046B0001BC08A819B81EC81FD819183808381E095
:1046C000898313C0EC81FD8180E197E2918380832F
:1046D00081E089830AC0EC81FD811182108281E032
:1046E000898303C0198201C01982998198878885BE
:1046F00028960FB6F894DEBF0FBECDBFCF91DF91E5
:104700000895DF93CF93CDB7DEB7CF91DF910895B2
:10471000DF93CF93CDB7DEB70E947F21CF91DF919A
:104720000895DF93CF9300D000D0CDB7DEB780E0FF
:104730009E012F5F3F4FB9010E94BE21882311F0D7
:104740001C826BC09E012E5F3F4F81E0B9010E9429
:10475000BE21882311F01C8260C09E012D5F3F4F57
:1047600082E0B9010E94BE21882311F01C8255C04D
:104770008981882349F48A81813031F48B818823AF
:1047800019F481E08C8349C08981813049F48A81A0
:10479000882331F48B81882319F482E08C833DC017
:1047A0008981882349F48A81882331F48B8181307F
:1047B00019F483E08C8331C08981813049F48A8186
:1047C000813031F48B81882319F484E08C8325C0F7
:1047D0008981882349F48A81813031F48B81813049
:1047E00019F485E08C8319C08981882349F48A8172
:1047F000882331F48B81882319F486E08C830DC0E3
:104800008981813049F48A81813031F48B81813012
:1048100019F486E08C8301C01C828C810F900F906C
:104820000F900F90CF91DF910895DF93CF93CDB785
:10483000DEB78EEF98E20E94E2080E947F060E9497
:10484000B6220E94ED220E9488230E94E2227894E0
:10485000CF91DF910895DF93CF9300D0CDB7DEB72E
:1048600080916900282F30E03A83298389819A81D9
:104870008C34910521F129813A812D3431055CF484
:1048800089819A8182349105A1F029813A81263467
:10489000310561F019C089819A818235910561F0F5
:1048A00029813A812335310569F00EC00E94AB227F
:1048B0000BC00E94C12208C00E94CC2205C00E94E9
:1048C000D72202C00E94E2220F900F90CF91DF9179
:1048D00008950F931F93DF93CF93CDB7DEB7C856DC
:1048E000D0400FB6F894DEBF0FBECDBFFE01ED592C
:1048F000FF4F11821082CE018D599F4F0E942323BA
:10490000813019F00E948123FDC3FE01ED59FF4F54
:10491000808191818932910518F00E94AB22F2C307
:104920000E94E222FE01E15AFF4F80E090E0A6E102
:10493000B4E480839183A283B3838E01055A1F4F11
:10494000FE01E15AFF4F608171818281938120E0F5
:1049500030E04AEF54E40E941F02DC01CB01F80171
:1049600080839183A283B383FE01E55AFF4F608168
:1049700071818281938120E030E040E85FE30E9412
:104980002504882344F4FE01E75AFF4F81E090E0BC
:104990009183808364C0FE01E55AFF4F608171817D
:1049A0008281938120E03FEF4FE757E40E94C503E7
:1049B00018160CF043C0FE01E15AFF4F608171816F
:1049C0008281938120E030E040E251E40E941F02A6
:1049D000DC01CB018E01075A1F4FBC01CD010E94A3
:1049E0004900DC01CB01F801918380831FC0FE01E7
:1049F000E95AFF4F88EC90E091838083FE01E95AE9
:104A0000FF4F808191810197F1F7FE01E95AFF4F35
:104A100091838083DE01A75ABF4FFE01E75AFF4F03
:104A200080819181019711969C938E93FE01E75AA4
:104A3000FF4F808191810097D1F628C08E01075ADF
:104A40001F4FFE01E55AFF4F608171818281938182
:104A50000E944900DC01CB01F80191838083DE01D3
:104A6000AB5ABF4FFE01E75AFF4F808191811196EB
:104A70009C938E93FE01EB5AFF4F808191810197A9
:104A8000F1F7FE01EB5AFF4F91838083FE01ED5950
:104A9000FF4F808191818F30910508F0B7C00E944F
:104AA000C122FE01EF5AFF4F80E090E0A6E9B3E497
:104AB00080839183A283B3838E01035B1F4FFE012A
:104AC000EF5AFF4F608171818281938120E030E055
:104AD0004AEF54E40E941F02DC01CB01F8018083FD
:104AE0009183A283B383FE01E35BFF4F60817181F9
:104AF0008281938120E030E040E85FE30E9425045A
:104B0000882344F4FE01E55BFF4F81E090E0918350
:104B1000808364C0FE01E35BFF4F6081718182810D
:104B2000938120E03FEF4FE757E40E94C50318163A
:104B30000CF043C0FE01EF5AFF4F6081718182810A
:104B4000938120E030E040E251E40E941F02DC014A
:104B5000CB018E01055B1F4FBC01CD010E944900B6
:104B6000DC01CB01F801918380831FC0FE01E75B6C
:104B7000FF4F88EC90E091838083FE01E75BFF4F5D
:104B8000808191810197F1F7FE01E75BFF4F9183EF
:104B90008083DE01A55BBF4FFE01E55BFF4F808197
:104BA0009181019711969C938E93FE01E55BFF4FD7
:104BB000808191810097D1F627C08E01055B1F4F40
:104BC000FE01E35BFF4F60817181828193810E94CE
:104BD0004900DC01CB01F80191838083DE01A95BF0
:104BE000BF4FFE01E55BFF4F808191818D939C93C8
:104BF000FE01E95BFF4F808191810197F1F7FE0192
:104C0000E95BFF4F918380830E94E2220E94FC2295
:104C1000FE01ED5BFF4F80E090E0A6E1B4E480830D
:104C20009183A283B3838E01015C1F4FFE01ED5B74
:104C3000FF4F608171818281938120E030E04AEFF3
:104C400054E40E941F02DC01CB01F80180839183B0
:104C5000A283B383FE01FF9660817181828193817B
:104C600020E030E040E85FE30E94250488232CF434
:104C700081E090E09EAF8DAF46C0FE01FF9660815F
:104C800071818281938120E03FEF4FE757E40E94DA
:104C9000C503181664F5FE01ED5BFF4F608171815D
:104CA0008281938120E030E040E251E40E941F02C3
:104CB000DC01CB01BC01CD010E944900DC01CB012C
:104CC0009EAF8DAF0FC088EC90E09CAF8BAF8BADEB
:104CD0009CAD0197F1F79CAF8BAF8DAD9EAD019769
:104CE0009EAF8DAF8DAD9EAD009769F716C0FE01EA
:104CF000FF9660817181828193810E944900DC016D
:104D0000CB019EAF8DAF8DAD9EAD9AAF89AF89AD12
:104D10009AAD0197F1F79AAF89AFCE018B599F4FAA
:104D20000E942323813019F00E948123EBC10E944D
:104D3000092380E090E0A6E1B4E48DAB9EABAFAB7D
:104D4000B8AF6DA97EA98FA998AD20E030E04AEFF9
:104D500054E40E941F02DC01CB0189AB9AABABABE0
:104D6000BCAB69A97AA98BA99CA920E030E040E8F6
:104D70005FE30E94250488232CF481E090E098AB47
:104D80008FA73FC069A97AA98BA99CA920E03FEF12
:104D90004FE757E40E94C50318164CF56DA97EA98C
:104DA0008FA998AD20E030E040E251E40E941F025C
:104DB000DC01CB01BC01CD010E944900DC01CB012B
:104DC00098AB8FA70FC088EC90E09EA78DA78DA50C
:104DD0009EA50197F1F79EA78DA78FA598A901978A
:104DE00098AB8FA78FA598A9009769F714C069A9F8
:104DF0007AA98BA99CA90E944900DC01CB0198AB40
:104E00008FA78FA598A99CA78BA78BA59CA5019779
:104E1000F1F79CA78BA7CE0189599F4F0E942323AE
:104E2000813019F00E9481236DC1FE01EB59FF4FC3
:104E300020813181FE01E959FF4F808191818217E4
:104E4000930708F075C00E94CC2280E090E0A6E9AC
:104E5000B3E48FA398A7A9A7BAA76FA178A589A53E
:104E60009AA520E030E04AEF54E40E941F02DC01E2
:104E7000CB018BA39CA3ADA3BEA36BA17CA18DA1F1
:104E80009EA120E030E040E85FE30E9425048823F3
:104E90002CF481E090E09AA389A33FC06BA17CA190
:104EA0008DA19EA120E03FEF4FE757E40E94C5038C
:104EB00018164CF56FA178A589A59AA520E030E0D9
:104EC00040E251E40E941F02DC01CB01BC01CD0194
:104ED0000E944900DC01CB019AA389A30FC088EC92
:104EE00090E098A38F8F8F8D98A10197F1F798A3E9
:104EF0008F8F89A19AA101979AA389A389A19AA1C9
:104F0000009769F789C06BA17CA18DA19EA10E9429
:104F10004900DC01CB019AA389A389A19AA19E8FA4
:104F20008D8F8D8D9E8D0197F1F79E8F8D8F74C023
:104F30000E94D72280E090E0A6E9B3E4898F9A8F9F
:104F4000AB8FBC8F698D7A8D8B8D9C8D20E030E08E
:104F50004AEF54E40E941F02DC01CB018D8B9E8B33
:104F6000AF8BB88F6D897E898F89988D20E030E076
:104F700040E85FE30E94250488232CF481E090E060
:104F80009C8B8B8B3FC06D897E898F89988D20E0AB
:104F90003FEF4FE757E40E94C50318164CF5698DA3
:104FA0007A8D8B8D9C8D20E030E040E251E40E94B0
:104FB0001F02DC01CB01BC01CD010E944900DC01D4
:104FC000CB019C8B8B8B0FC088EC90E09A8B898BEC
:104FD00089899A890197F1F79A8B898B8B899C89AA
:104FE00001979C8B8B8B8B899C89009769F714C0E8
:104FF0006D897E898F89988D0E944900DC01CB01E3
:105000009C8B8B8B8B899C89988B8F878F859889BC
:105010000197F1F7988B8F870E94E2220E94162356
:1050200080E090E0A6E9B3E48B879C87AD87BE87DC
:105030006B857C858D859E8520E030E04AEF54E4C9
:105040000E941F02DC01CB018F839887A987BA8752
:105050006F81788589859A8520E030E040E85FE3BC
:105060000E94250488232CF481E090E09E838D83A8
:105070003FC06F81788589859A8520E03FEF4FE7B3
:1050800057E40E94C50318164CF56B857C858D8509
:105090009E8520E030E040E251E40E941F02DC01E6
:1050A000CB01BC01CD010E944900DC01CB019E83F4
:1050B0008D830FC088EC90E09C838B838B819C81D7
:1050C0000197F1F79C838B838D819E8101979E834D
:1050D0008D838D819E81009769F714C06F817885DB
:1050E00089859A850E944900DC01CB019E838D83CE
:1050F0008D819E819A83898389819A810197F1F7B5
:105100009A838983C859DF4F0FB6F894DEBF0FBE6C
:10511000CDBFCF91DF911F910F910895DF93CF9372
:1051200000D00F92CDB7DEB70E9491238983898189
:10513000282F30E03B832A838A819B81833091052D
:1051400071F12A813B81243031057CF48A819B8175
:1051500081309105D1F02A813B8122303105D4F490
:105160008A819B81009769F12FC02A813B8125307C
:105170003105F9F08A819B8185309105ACF02A8157
:105180003B8126303105D1F01FC00E94AB220E9426
:10519000E2221CC00E94D7220E94E22217C00E9475
:1051A000CC220E94E22212C00E94D7220E94E22258
:1051B0000DC00E94CC220E94E22208C00E94E2227E
:1051C00005C00E94E22202C00E94E2220F900F90CE
:1051D0000F90CF91DF910895DF93CF93CDB7DEB7D6
:1051E000CF91DF910895DF93CF93CDB7DEB70E94C3
:1051F000E2220E941623CF91DF910895DF93CF938F
:1052000000D00F92CDB7DEB789838981282F30E097
:105210003B832A838A819B818234910509F45CC097
:105220002A813B8123343105E4F48A819B818233D6
:10523000910509F43DC02A813B812333310534F4C3
:105240008A819B818133910561F155C02A813B811F
:105250002333310589F18A819B818433910581F162
:105260004AC02A813B812C343105D1F18A819B814E
:105270008D3491055CF42A813B812534310521F17F
:105280008A819B818634910519F135C02A813B8141
:105290002235310549F18A819B818335910541F1A0
:1052A0002AC081E38093680083E58093690023C06E
:1052B00082E3809368001FC083E3809368001BC073
:1052C00084E38093680017C085E48093680013C06E
:1052D00086E4809369000FC082E4809369000BC06C
:1052E0008CE48093690007C082E58093690003C065
:1052F00083E5809369000F900F900F90CF91DF911D
:105300000895DF93CF9300D0CDB7DEB780916800CA
:10531000282F30E03A83298389819A81833391054C
:1053200009F129813A81243331055CF489819A811C
:105330008133910589F029813A812233310579F051
:10534000E5CF89819A818433910579F029813A8169
:105350002534310569F0DACF0E942B24D7CF0E9483
:105360006924D4CF0E948E28D1CF0E94EC28CECFC2
:105370000E94F328CBCFA1E21A2EAA1BBB1BFD0172
:105380000DC0AA1FBB1FEE1FFF1FA217B307E40724
:10539000F50720F0A21BB30BE40BF50B661F771F7C
:1053A000881F991F1A9469F760957095809590955C
:1053B0009B01AC01BD01CF01089597FB092E052685
:1053C0000ED057FD04D0D7DF0AD0001C38F450951A
:1053D0004095309521953F4F4F4F5F4F0895F6F719
:1053E00090958095709561957F4F8F4F9F4F089551
:1053F0002F923F924F925F926F927F928F929F92E5
:10540000AF92BF92CF92DF92EF92FF920F931F93D2
:10541000CF93DF93CDB7DEB7CA1BDB0B0FB6F89483
:10542000DEBF0FBECDBF09942A88398848885F84C3
:105430006E847D848C849B84AA84B984C884DF8034
:10544000EE80FD800C811B81AA81B981CE0FD11D18
:105450000FB6F894DEBF0FBECDBFED010895F894EE
:02546000FFCF7C
:105462000000000000000000455300040005000693
:00000001FF
